{
  "_format": "hh-sol-artifact-1",
  "contractName": "CerberusPay",
  "sourceName": "contracts/CerberusPay.sol",
  "abi": [
    {
      "inputs": [],
      "stateMutability": "nonpayable",
      "type": "constructor"
    },
    {
      "inputs": [],
      "name": "EnforcedPause",
      "type": "error"
    },
    {
      "inputs": [],
      "name": "ExpectedPause",
      "type": "error"
    },
    {
      "inputs": [
        {
          "internalType": "address",
          "name": "owner",
          "type": "address"
        }
      ],
      "name": "OwnableInvalidOwner",
      "type": "error"
    },
    {
      "inputs": [
        {
          "internalType": "address",
          "name": "account",
          "type": "address"
        }
      ],
      "name": "OwnableUnauthorizedAccount",
      "type": "error"
    },
    {
      "inputs": [],
      "name": "ReentrancyGuardReentrantCall",
      "type": "error"
    },
    {
      "anonymous": false,
      "inputs": [
        {
          "indexed": true,
          "internalType": "address",
          "name": "previousOwner",
          "type": "address"
        },
        {
          "indexed": true,
          "internalType": "address",
          "name": "newOwner",
          "type": "address"
        }
      ],
      "name": "OwnershipTransferred",
      "type": "event"
    },
    {
      "anonymous": false,
      "inputs": [
        {
          "indexed": true,
          "internalType": "address",
          "name": "customer",
          "type": "address"
        },
        {
          "indexed": false,
          "internalType": "uint256",
          "name": "date",
          "type": "uint256"
        },
        {
          "indexed": false,
          "internalType": "uint256",
          "name": "amount",
          "type": "uint256"
        }
      ],
      "name": "Paid",
      "type": "event"
    },
    {
      "anonymous": false,
      "inputs": [
        {
          "indexed": false,
          "internalType": "address",
          "name": "account",
          "type": "address"
        }
      ],
      "name": "Paused",
      "type": "event"
    },
    {
      "anonymous": false,
      "inputs": [
        {
          "indexed": false,
          "internalType": "address",
          "name": "account",
          "type": "address"
        }
      ],
      "name": "Unpaused",
      "type": "event"
    },
    {
      "inputs": [],
      "name": "acceptedToken",
      "outputs": [
        {
          "internalType": "contract IERC20",
          "name": "",
          "type": "address"
        }
      ],
      "stateMutability": "view",
      "type": "function"
    },
    {
      "inputs": [
        {
          "internalType": "uint256",
          "name": "",
          "type": "uint256"
        }
      ],
      "name": "customers",
      "outputs": [
        {
          "internalType": "address",
          "name": "",
          "type": "address"
        }
      ],
      "stateMutability": "view",
      "type": "function"
    },
    {
      "inputs": [],
      "name": "getCostumers",
      "outputs": [
        {
          "internalType": "address[]",
          "name": "",
          "type": "address[]"
        }
      ],
      "stateMutability": "view",
      "type": "function"
    },
    {
      "inputs": [],
      "name": "monthlyAmount",
      "outputs": [
        {
          "internalType": "uint256",
          "name": "",
          "type": "uint256"
        }
      ],
      "stateMutability": "view",
      "type": "function"
    },
    {
      "inputs": [],
      "name": "owner",
      "outputs": [
        {
          "internalType": "address",
          "name": "",
          "type": "address"
        }
      ],
      "stateMutability": "view",
      "type": "function"
    },
    {
      "inputs": [],
      "name": "pause",
      "outputs": [],
      "stateMutability": "nonpayable",
      "type": "function"
    },
    {
      "inputs": [],
      "name": "paused",
      "outputs": [
        {
          "internalType": "bool",
          "name": "",
          "type": "bool"
        }
      ],
      "stateMutability": "view",
      "type": "function"
    },
    {
      "inputs": [
        {
          "internalType": "address",
          "name": "customer",
          "type": "address"
        }
      ],
      "name": "pay",
      "outputs": [],
      "stateMutability": "nonpayable",
      "type": "function"
    },
    {
      "inputs": [
        {
          "internalType": "address",
          "name": "",
          "type": "address"
        }
      ],
      "name": "payments",
      "outputs": [
        {
          "internalType": "uint256",
          "name": "",
          "type": "uint256"
        }
      ],
      "stateMutability": "view",
      "type": "function"
    },
    {
      "inputs": [],
      "name": "renounceOwnership",
      "outputs": [],
      "stateMutability": "nonpayable",
      "type": "function"
    },
    {
      "inputs": [
        {
          "internalType": "address",
          "name": "tokenAddress",
          "type": "address"
        }
      ],
      "name": "setAcceptedToken",
      "outputs": [],
      "stateMutability": "nonpayable",
      "type": "function"
    },
    {
      "inputs": [
        {
          "internalType": "uint256",
          "name": "newAmount",
          "type": "uint256"
        }
      ],
      "name": "setMonthlyAmount",
      "outputs": [],
      "stateMutability": "nonpayable",
      "type": "function"
    },
    {
      "inputs": [],
      "name": "thirtyDaysInSecondes",
      "outputs": [
        {
          "internalType": "uint256",
          "name": "",
          "type": "uint256"
        }
      ],
      "stateMutability": "view",
      "type": "function"
    },
    {
      "inputs": [
        {
          "internalType": "address",
          "name": "newOwner",
          "type": "address"
        }
      ],
      "name": "transferOwnership",
      "outputs": [],
      "stateMutability": "nonpayable",
      "type": "function"
    },
    {
      "inputs": [],
      "name": "unpause",
      "outputs": [],
      "stateMutability": "nonpayable",
      "type": "function"
    },
    {
      "inputs": [
        {
          "internalType": "uint256",
          "name": "amount",
          "type": "uint256"
        }
      ],
      "name": "withdraw",
      "outputs": [],
      "stateMutability": "nonpayable",
      "type": "function"
    }
  ],
  "bytecode": "0x608060405266038d7ea4c6800060035534801561001b57600080fd5b5033600073ffffffffffffffffffffffffffffffffffffffff168173ffffffffffffffffffffffffffffffffffffffff160361008f5760006040517f1e4fbdf700000000000000000000000000000000000000000000000000000000815260040161008691906101f3565b60405180910390fd5b61009e816100ee60201b60201c565b5060018081905550611010600260006101000a81548173ffffffffffffffffffffffffffffffffffffffff021916908373ffffffffffffffffffffffffffffffffffffffff16021790555061020e565b60008060009054906101000a900473ffffffffffffffffffffffffffffffffffffffff169050816000806101000a81548173ffffffffffffffffffffffffffffffffffffffff021916908373ffffffffffffffffffffffffffffffffffffffff1602179055508173ffffffffffffffffffffffffffffffffffffffff168173ffffffffffffffffffffffffffffffffffffffff167f8be0079c531659141344cd1fd0a4f28419497f9722a3daafe3b4186f6b6457e060405160405180910390a35050565b600073ffffffffffffffffffffffffffffffffffffffff82169050919050565b60006101dd826101b2565b9050919050565b6101ed816101d2565b82525050565b600060208201905061020860008301846101e4565b92915050565b61139d8061021d6000396000f3fe608060405234801561001057600080fd5b50600436106101005760003560e01c80637487f52811610097578063c0abda2a11610066578063c0abda2a14610229578063de72c93814610259578063e2982c2114610277578063f2fde38b146102a757610100565b80637487f528146101c95780638456cb59146101e55780638da5cb5b146101ef578063939022871461020d57610100565b8063451c3d80116100d3578063451c3d80146101655780635c975abb146101835780636588439c146101a1578063715018a6146101bf57610100565b80630c11dedd146101055780631064b8d3146101215780632e1a7d4d1461013f5780633f4ba83a1461015b575b600080fd5b61011f600480360381019061011a9190610e34565b6102c3565b005b6101296106cf565b6040516101369190610e7a565b60405180910390f35b61015960048036038101906101549190610ec1565b6106d6565b005b61016361087d565b005b61016d61088f565b60405161017a9190610f4d565b60405180910390f35b61018b6108b5565b6040516101989190610f83565b60405180910390f35b6101a96108cb565b6040516101b69190610e7a565b60405180910390f35b6101c76108d1565b005b6101e360048036038101906101de9190610e34565b6108e5565b005b6101ed610931565b005b6101f7610943565b6040516102049190610fad565b60405180910390f35b61022760048036038101906102229190610ec1565b61096c565b005b610243600480360381019061023e9190610ec1565b61097e565b6040516102509190610fad565b60405180910390f35b6102616109bd565b60405161026e9190611086565b60405180910390f35b610291600480360381019061028c9190610e34565b610a4b565b60405161029e9190610e7a565b60405180910390f35b6102c160048036038101906102bc9190610e34565b610a63565b005b6102cb610ae9565b6102d3610b70565b600042600460008473ffffffffffffffffffffffffffffffffffffffff1673ffffffffffffffffffffffffffffffffffffffff1681526020019081526020016000205411159050600080600460008573ffffffffffffffffffffffffffffffffffffffff1673ffffffffffffffffffffffffffffffffffffffff168152602001908152602001600020541490506000600354600260009054906101000a900473ffffffffffffffffffffffffffffffffffffffff1673ffffffffffffffffffffffffffffffffffffffff166370a08231866040518263ffffffff1660e01b81526004016103c09190610fad565b602060405180830381865afa1580156103dd573d6000803e3d6000fd5b505050506040513d601f19601f8201168201806040525081019061040191906110bd565b101590506000600354600260009054906101000a900473ffffffffffffffffffffffffffffffffffffffff1673ffffffffffffffffffffffffffffffffffffffff1663dd62ed3e87306040518363ffffffff1660e01b81526004016104679291906110ea565b602060405180830381865afa158015610484573d6000803e3d6000fd5b505050506040513d601f19601f820116820180604052508101906104a891906110bd565b10159050600084806104b75750835b9050806104c85750505050506106cc565b8115806104d3575082155b15610513576040517f08c379a000000000000000000000000000000000000000000000000000000000815260040161050a90611196565b60405180910390fd5b600260009054906101000a900473ffffffffffffffffffffffffffffffffffffffff1673ffffffffffffffffffffffffffffffffffffffff166323b872dd87306003546040518463ffffffff1660e01b8152600401610574939291906111b6565b6020604051808303816000875af1158015610593573d6000803e3d6000fd5b505050506040513d601f19601f820116820180604052508101906105b79190611219565b508315610622576005869080600181540180825580915050600190039060005260206000200160009091909190916101000a81548173ffffffffffffffffffffffffffffffffffffffff021916908373ffffffffffffffffffffffffffffffffffffffff1602179055505b62278d00426106319190611275565b600460008873ffffffffffffffffffffffffffffffffffffffff1673ffffffffffffffffffffffffffffffffffffffff168152602001908152602001600020819055508573ffffffffffffffffffffffffffffffffffffffff167fdf9a51129930649214df58f542322c245372c6f2fa6fc3c9b40d927c597cd230426003546040516106be9291906112a9565b60405180910390a250505050505b50565b62278d0081565b6106de610ae9565b6106e6610bb1565b6000600260009054906101000a900473ffffffffffffffffffffffffffffffffffffffff1673ffffffffffffffffffffffffffffffffffffffff166370a08231306040518263ffffffff1660e01b81526004016107439190610fad565b602060405180830381865afa158015610760573d6000803e3d6000fd5b505050506040513d601f19601f8201168201806040525081019061078491906110bd565b9050818110156107c9576040517f08c379a00000000000000000000000000000000000000000000000000000000081526004016107c09061131e565b60405180910390fd5b600260009054906101000a900473ffffffffffffffffffffffffffffffffffffffff1673ffffffffffffffffffffffffffffffffffffffff1663a9059cbb61080f610943565b846040518363ffffffff1660e01b815260040161082d92919061133e565b6020604051808303816000875af115801561084c573d6000803e3d6000fd5b505050506040513d601f19601f820116820180604052508101906108709190611219565b505061087a610bf7565b50565b610885610ae9565b61088d610c00565b565b600260009054906101000a900473ffffffffffffffffffffffffffffffffffffffff1681565b60008060149054906101000a900460ff16905090565b60035481565b6108d9610ae9565b6108e36000610c62565b565b6108ed610ae9565b80600260006101000a81548173ffffffffffffffffffffffffffffffffffffffff021916908373ffffffffffffffffffffffffffffffffffffffff16021790555050565b610939610ae9565b610941610d26565b565b60008060009054906101000a900473ffffffffffffffffffffffffffffffffffffffff16905090565b610974610ae9565b8060038190555050565b6005818154811061098e57600080fd5b906000526020600020016000915054906101000a900473ffffffffffffffffffffffffffffffffffffffff1681565b60606005805480602002602001604051908101604052809291908181526020018280548015610a4157602002820191906000526020600020905b8160009054906101000a900473ffffffffffffffffffffffffffffffffffffffff1673ffffffffffffffffffffffffffffffffffffffff16815260200190600101908083116109f7575b5050505050905090565b60046020528060005260406000206000915090505481565b610a6b610ae9565b600073ffffffffffffffffffffffffffffffffffffffff168173ffffffffffffffffffffffffffffffffffffffff1603610add5760006040517f1e4fbdf7000000000000000000000000000000000000000000000000000000008152600401610ad49190610fad565b60405180910390fd5b610ae681610c62565b50565b610af1610d89565b73ffffffffffffffffffffffffffffffffffffffff16610b0f610943565b73ffffffffffffffffffffffffffffffffffffffff1614610b6e57610b32610d89565b6040517f118cdaa7000000000000000000000000000000000000000000000000000000008152600401610b659190610fad565b60405180910390fd5b565b610b786108b5565b15610baf576040517fd93c066500000000000000000000000000000000000000000000000000000000815260040160405180910390fd5b565b600260015403610bed576040517f3ee5aeb500000000000000000000000000000000000000000000000000000000815260040160405180910390fd5b6002600181905550565b60018081905550565b610c08610d91565b60008060146101000a81548160ff0219169083151502179055507f5db9ee0a495bf2e6ff9c91a7834c1ba4fdd244a5e8aa4e537bd38aeae4b073aa610c4b610d89565b604051610c589190610fad565b60405180910390a1565b60008060009054906101000a900473ffffffffffffffffffffffffffffffffffffffff169050816000806101000a81548173ffffffffffffffffffffffffffffffffffffffff021916908373ffffffffffffffffffffffffffffffffffffffff1602179055508173ffffffffffffffffffffffffffffffffffffffff168173ffffffffffffffffffffffffffffffffffffffff167f8be0079c531659141344cd1fd0a4f28419497f9722a3daafe3b4186f6b6457e060405160405180910390a35050565b610d2e610b70565b6001600060146101000a81548160ff0219169083151502179055507f62e78cea01bee320cd4e420270b5ea74000d11b0c9f74754ebdbfc544b05a258610d72610d89565b604051610d7f9190610fad565b60405180910390a1565b600033905090565b610d996108b5565b610dcf576040517f8dfc202b00000000000000000000000000000000000000000000000000000000815260040160405180910390fd5b565b600080fd5b600073ffffffffffffffffffffffffffffffffffffffff82169050919050565b6000610e0182610dd6565b9050919050565b610e1181610df6565b8114610e1c57600080fd5b50565b600081359050610e2e81610e08565b92915050565b600060208284031215610e4a57610e49610dd1565b5b6000610e5884828501610e1f565b91505092915050565b6000819050919050565b610e7481610e61565b82525050565b6000602082019050610e8f6000830184610e6b565b92915050565b610e9e81610e61565b8114610ea957600080fd5b50565b600081359050610ebb81610e95565b92915050565b600060208284031215610ed757610ed6610dd1565b5b6000610ee584828501610eac565b91505092915050565b6000819050919050565b6000610f13610f0e610f0984610dd6565b610eee565b610dd6565b9050919050565b6000610f2582610ef8565b9050919050565b6000610f3782610f1a565b9050919050565b610f4781610f2c565b82525050565b6000602082019050610f626000830184610f3e565b92915050565b60008115159050919050565b610f7d81610f68565b82525050565b6000602082019050610f986000830184610f74565b92915050565b610fa781610df6565b82525050565b6000602082019050610fc26000830184610f9e565b92915050565b600081519050919050565b600082825260208201905092915050565b6000819050602082019050919050565b610ffd81610df6565b82525050565b600061100f8383610ff4565b60208301905092915050565b6000602082019050919050565b600061103382610fc8565b61103d8185610fd3565b935061104883610fe4565b8060005b838110156110795781516110608882611003565b975061106b8361101b565b92505060018101905061104c565b5085935050505092915050565b600060208201905081810360008301526110a08184611028565b905092915050565b6000815190506110b781610e95565b92915050565b6000602082840312156110d3576110d2610dd1565b5b60006110e1848285016110a8565b91505092915050565b60006040820190506110ff6000830185610f9e565b61110c6020830184610f9e565b9392505050565b600082825260208201905092915050565b7f496e73756666696369656e742062616c616e636520616e642f6f7220616c6c6f60008201527f77616e6365000000000000000000000000000000000000000000000000000000602082015250565b6000611180602583611113565b915061118b82611124565b604082019050919050565b600060208201905081810360008301526111af81611173565b9050919050565b60006060820190506111cb6000830186610f9e565b6111d86020830185610f9e565b6111e56040830184610e6b565b949350505050565b6111f681610f68565b811461120157600080fd5b50565b600081519050611213816111ed565b92915050565b60006020828403121561122f5761122e610dd1565b5b600061123d84828501611204565b91505092915050565b7f4e487b7100000000000000000000000000000000000000000000000000000000600052601160045260246000fd5b600061128082610e61565b915061128b83610e61565b92508282019050808211156112a3576112a2611246565b5b92915050565b60006040820190506112be6000830185610e6b565b6112cb6020830184610e6b565b9392505050565b7f496e73756666696369656e742062616c616e6365000000000000000000000000600082015250565b6000611308601483611113565b9150611313826112d2565b602082019050919050565b60006020820190508181036000830152611337816112fb565b9050919050565b60006040820190506113536000830185610f9e565b6113606020830184610e6b565b939250505056fea2646970667358221220e192b3ee951639e98c3f6c61467fa7944192a5a9a3f26aabcd160949a72e1d7364736f6c634300081c0033",
  "linkReferences": {},
  "deployedLinkReferences": {}
}